:100000000C9461000C94740A0C944D0A0C947E00BC
:100010000C947E000C947E000C947E000C947E0068
:100020000C947E000C947E000C947E000C947E0058
:100030000C947E000C947E000C947E000C947E0048
:100040000C94030A0C947E000C947E000C947E00A9
:100050000C947E000C947E000C947E000C947E0028
:100060000C947E000C947E00000000002400270009
:100070002A0000000000250028002B0000000000DE
:1000800023002600290004040404040404040202DA
:100090000202020203030303030301020408102007
:1000A0004080010204081020010204081020000012
:1000B0000008000201000003040700000000000027
:1000C000000011241FBECFEFD8E0DEBFCDBF11E08E
:1000D000A0E0B1E0ECE3FEE102C005900D92A43196
:1000E000B107D9F721E0A4E1B1E001C01D92AE381B
:1000F000B207E1F70E949B0A0C941C0F0C940000BD
:10010000833081F028F4813099F08230A9F008958D
:100110008730A9F08830C9F08430B1F48091800034
:100120008F7D03C0809180008F7780938000089539
:1001300084B58F7784BD089584B58F7DFBCF809182
:10014000B0008F778093B00008958091B0008F7DCC
:10015000F9CFCF93DF93282F30E0F901E255FF4F1D
:100160008491F901E656FF4FD491F901EA57FF4F08
:10017000C491CC23A1F081110E948000EC2FF0E00B
:10018000EE0FFF1FE458FF4FA591B491EC91ED23C2
:1001900081E090E009F480E0DF91CF91089580E064
:1001A00090E0FACF1F93CF93DF93282F30E0F9012F
:1001B000E255FF4F8491F901E656FF4FD491F901C2
:1001C000EA57FF4FC491CC23A9F0162F81110E944A
:1001D0008000EC2FF0E0EE0FFF1FEE58FF4FA591CF
:1001E000B4918FB7F894EC91111108C0D095DE232B
:1001F000DC938FBFDF91CF911F910895DE2BF8CF55
:10020000CF93DF9390E0FC01E656FF4F24918A578D
:100210009F4FFC0184918823D1F090E0880F991FB3
:10022000FC01E859FF4FA591B491FC01EE58FF4F36
:10023000C591D491623071F49FB7F8943C91822FAC
:10024000809583238C93E8812E2B28839FBFDF9199
:10025000CF9108958FB7F894EC912E2B2C938FBFEC
:10026000F6CF8E50806480937C0080917A00806409
:1002700080937A0080917A0086FDFCCF809178008F
:100280009091790008952FB7F8946091740170915E
:10029000750180917601909177012FBF089508959F
:1002A00081E080938C0110927F0110928D01109259
:1002B0006D0110926C0110923C0110923A01109263
:1002C0007D0110927E0110928601809340018093FF
:1002D0005E01809359018093390110923D01109283
:1002E0003E01109238011092370110928B0110924A
:1002F0000E0110926E0110923B0180933F0110920B
:100300006B0195E090933601809335018093340121
:10031000109281010E94430160936701709368010C
:100320008093690190936A010E9443016093870161
:10033000709388018093890190938A010E94430100
:100340006093790170937A0180937B0190937C0193
:100350000E94430160933001709331018093320118
:10036000909333010E9443016093410170934201D5
:1003700080934301909344010E94430160932C01B8
:1003800070932D0180932E0190932F010E944301C1
:10039000609328017093290180932A0190932B0187
:1003A0000E944301609382017093830180938401D2
:1003B000909385010E94430160932401709325016D
:1003C000809326019093270160E084E00E94D20090
:1003D00060E085E00E94D20060E086E00E94D200EA
:1003E00060E087E00E94D20060E088E00E94D200D6
:1003F00061E08DE00E94D20061E08CE00E94D200BA
:1004000061E08BE00E94D20061E08AE00E94D200AD
:1004100061E089E00C94D2000F931F930E94430186
:1004200020913901222399F0109239018B019C010E
:1004300000541B422E4F3F4F00934501109346013D
:10044000209347013093480121E020938B010091D4
:10045000450110914601209147013091480106174E
:10046000170728073907E0F40E94500110928C0109
:100470008091800180937F01809109018093040124
:1004800080910A018093050180910B018093060100
:1004900080910C018093070180910D0180930801E8
:1004A0001F910F9108950E94430120913B013091CB
:1004B0003701311126C030916B01332319F031E03F
:1004C00030938D01211115C0645D7E4F8F4F9F4F7A
:1004D00060934101709342018093430190934401E2
:1004E00061E086E00E94D20081E080933A0180932F
:1004F0003B0160E084E00E94D20060E085E00C9463
:10050000D2002223B9F0645D7E4F8F4F9F4F6093DE
:10051000410170934201809343019093440160E054
:1005200086E00E94D20010923A0181E080936E0131
:1005300010923B01089580915E0191E0892780939C
:100540005E0184E00E94A90060E0892B19F084E03C
:100550000C94D20085E00E94D20061E0F8CF1092A6
:100560007801E9E0F1E0108281E081838283838376
:100570008483E4E0F1E01082818382838383848337
:1005800008950F931F93CF93DF93C82F0EE011E0D0
:10059000F8016481D1E06D2789E00E94D200F80162
:1005A00063816D278AE00E94D200F80162816D2785
:1005B0008BE00E94D200F80161816D278CE00E94DF
:1005C000D200F80160816D278DE00E94D200EC2FEF
:1005D000F0E0E25FFE4F8081D827D083DF91CF919A
:1005E0001F910F9108950F931F93CF93DF93C091A5
:1005F0000401C0930F0110910501109310010091A7
:100600000601009311016091070160931201D1E08E
:100610006D2789E00E94D200602F6D278AE00E943A
:10062000D200612F6D278BE00E94D2006C2F6D27C6
:100630008CE00E94D20080918B0160E0811101C0AA
:1006400061E08DE0DF91CF911F910F910C94D2006A
:100650002F923F924F925F926F927F928F929F92D2
:10066000AF92BF92CF92DF92EF92FF920F931F93C0
:10067000CF93DF93CDB7DEB728970FB6F894DEBFE0
:100680000FBECDBF5C01962E142F022F0E94430196
:100690006B017C0180916E01811103C081E0809328
:1006A0008D0160906C0170906D016A147B0408F0FC
:1006B000C5C120915E0130915901992009F401C210
:1006C000672869F581E080936B01D701C6018056E8
:1006D000904FAF4FBF4F8093670190936801A093F5
:1006E0006901B0936A01B701A601405F584D6F4F91
:1006F0007F4F409363015093640160936501709351
:10070000660180935F0190936001A0936101B093B3
:10071000620181E090E090936D0180936C0184EF21
:1007200091E0A0E0B0E0211104C08CEE9CE2A0E0DA
:10073000B0E080935A0190935B01A0935C01B09369
:100740005D013323B9F084EF91E0A0E0B0E0809345
:10075000550190935601A0935701B093580122235D
:10076000A9F08093510190935201A0935301B0934B
:1007700054019FC08CEE9CE2A0E0B0E08093550154
:1007800090935601A0935701B09358018CE795E1DF
:10079000A0E0B0E0E6CF8CE291E0A0E0B0E0809392
:1007A0004D0190934E01A0934F01B093500184EA04
:1007B00096E0A0E0B0E08093490190934A01A093B5
:1007C0004B01B0934C0140914D0150914E0160910D
:1007D0004F01709150018090490190904A01A09082
:1007E0004B01B0904C01DB01CA01880D991DAA1D77
:1007F000BB1D1C012D0156944794379427942D82DC
:100800003E824F825886672899F5E1E0E0936B01BC
:100810002601370180EA480E8FE0581E611C711CCA
:1008200040926701509268016092690170926A017A
:100830008D819E81AF81B885AA27BB27840D951D28
:10084000A61DB71D8093630190936401A093650179
:10085000B093660140925F01509260016092610125
:1008600070926201E1E0F0E0F0936D01E0936C01C1
:10087000222309F4C2C040935A0150935B01609354
:100880005C0170935D01332309F4C0C040935501AE
:10089000509356016093570170935801222309F435
:1008A000BDC0409351015093520160935301709326
:1008B00054018090670190906801A0906901B09008
:1008C0006A018C149D04AE04BF04F8F40E949B02DC
:1008D00080915A0190915B01A0915C01B0915D0102
:1008E000880D991DAA1DBB1D809367019093680117
:1008F000A0936901B0936A0180916C0190916D01A0
:10090000019690936D0180936C01809063019090AB
:100910006401A0906501B09066018C149D04AE0442
:10092000BF0468F58091590191E0892780935901AE
:1009300085E00E94A90060E0892B09F47AC085E077
:100940000E94D2008091550190915601A0915701CB
:10095000B0915801880D991DAA1DBB1D809363019C
:1009600090936401A0936501B093660180916C013E
:1009700090916D01019690936D0180936C01809030
:100980005F0190906001A0906101B09062018C14B1
:100990009D04AE04BF04C0F481E0810F0E94C10237
:1009A0008091510190915201A0915301B091540155
:1009B000880D991DAA1DBB1D80935F019093600156
:1009C000A0936101B093620128960FB6F894DEBF40
:1009D0000FBECDBFDF91CF911F910F91FF90EF9090
:1009E000DF90CF90BF90AF909F908F907F906F904F
:1009F0005F904F903F902F90089580925A0190926F
:100A00005B01A0925C01B0925D013DCF80925501E7
:100A100090925601A0925701B09258018D819E810B
:100A2000AF81B885AA27BB27841B950BA60BB70BF4
:100A300098CE84E00E94D20061E081CF60E084E043
:100A40000E94D20060E085E00E94D2006A147B041C
:100A5000A9F49FEFA91AB90AB0926D01A0926C0196
:100A6000D701C6018056904FAF4FBF4F80934501CD
:100A700090934601A0934701B093480180914501AE
:100A800090914601A0914701B09148018C159D05B8
:100A9000AE05BF0508F098CFE12FF0E0EC5FFE4F08
:100AA000108210926D0110926C010E94F30210925C
:100AB0006E0181E080935E018093590110926B0179
:100AC00083CF002309F467CE013009F064CE80E9BA
:100AD00091E0A0E0B0E080934D0190934E01A0938F
:100AE0004F01B093500180E496E0A0E0B0E063CE07
:100AF000CF92DF92EF92FF92CF9380918C01811180
:100B000076C00E9443016B017C018091410190916C
:100B10004201A0914301B09144018C159D05AE05A1
:100B2000BF0508F064C0D701C601845D9E4FAF4F7A
:100B3000BF4F8093410190934201A0934301B09332
:100B4000440180917D0181117DC0C1E0C0937D0190
:100B5000C0937E01109286011092400110923F01D5
:100B60000E94F30280916B01882389F1C0935E019A
:100B7000C093590180916C0190916D0180FD05C079
:100B8000019690936D0180936C01C0926701D092A1
:100B90006801E0926901F0926A01C0925F01D0920F
:100BA0006001E0926101F09262018091040188236A
:100BB00021F180E7C80E87E1D81EE11CF11CC0922C
:100BC0006301D0926401E0926501F0926601809128
:100BD0003E01882339F010923E0110923D018BE4D2
:100BE00080933C0180913B01811110923B01CF9198
:100BF000FF90EF90DF90CF90089580914D019091FC
:100C00004E01A0914F01B091500140914901509186
:100C10004A0160914B0170914C01840F951FA61FF2
:100C2000B71FB695A795979587958C0D9D1DAE1D01
:100C3000BF1D8093630190936401A0936501B093FD
:100C40006601C5CF809186018111D1CF81E080936B
:100C5000860110927D018093400110927E0160E038
:100C600084E00E94D20060E085E00E94D20060E053
:100C700086E00E94D20060E087E00E94D20060E03F
:100C800088E0CF91FF90EF90DF90CF900C94D2004E
:100C90008F929F92AF92BF92CF92DF92EF92FF928C
:100CA000CF93DF934B015C01D42F0E9443016B0172
:100CB0007C01C0913C01CC3408F021C180913E01FF
:100CC000811131C0D701C601845D9E4FAF4FBF4F28
:100CD0008093410190934201A0934301B09344015A
:100CE00061E088E00E94D20081E080933E01D7015C
:100CF000C60180589645AC4FBF4F8093200190931A
:100D00002101A0932201B0932301D701C601805F86
:100D1000984DAF4FBF4F80931C0190931D01A0933E
:100D20001E01B0931F0180911C0190911D01A091A3
:100D30001E01B0911F018C159D05AE05BF0538F44D
:100D400080918B01811178C081E080938D01809129
:100D500037018111C2C080913D01811119C081E02C
:100D600080933D01D701C6018057904AAE4FBF4FD7
:100D70008093180190931901A0931A01B0931B015D
:100D80008093670190936801A0936901B0936A0111
:100D90008091180190911901A0911A01B0911B0145
:100DA0008C159D05AE05BF05E0F5CE3108F04EC0AF
:100DB00080915E01882309F444C080ED97E0A0E0B3
:100DC000B0E080935A0190935B01A0935C01B093D3
:100DD0005D018090670190906801A0906901B090DA
:100DE0006A018C149D04AE04BF04D8F40E949B02D7
:100DF00080915A0190915B01A0915C01B0915D01DD
:100E0000880D991DAA1DBB1D8093670190936801F1
:100E1000A0936901B0936A0180913C018F5F809338
:100E20003C01DF91CF91FF90EF90DF90CF90BF908A
:100E3000AF909F908F90089560E08DE00E94D20067
:100E400086CF88E893E1A0E0B0E0BBCFC23348F49E
:100E500080915E018823A9F388EB9BE0A0E0B0E0DD
:100E6000B0CFCB3471F080915E01882329F080EA05
:100E70009FE0A0E0B0E0A5CF80E797E1A0E0B0E080
:100E8000A0CF409167015091680160916901709114
:100E90006A018CE480933C018C0C9D1CAE1CBF1C31
:100EA0008092140190921501A0921601B092170140
:100EB00080915A0190915B01A0915C01B0915D011C
:100EC000840F951FA61FB71F809367019093680139
:100ED000A0936901B0936A017CCF80912001909129
:100EE0002101A0912201B09123018C159D05AE0531
:100EF000BF0508F096CF81E080938D0192CF80915D
:100F0000140190911501A0911601B0911701C81616
:100F1000D906EA06FB06C0F5CC3439F461E084E07A
:100F20000E94D2008DE480933C01C0913601C43010
:100F300008F077CF8090630190906401A0906501E4
:100F4000B09066018C149D04AE04BF0408F069CF14
:100F5000D09159016D2F86E00E94D20081E0D82700
:100F6000D093590180E3880E85E7981EA11CB11C1F
:100F70008092630190926401A0926501B092660133
:100F8000CF5FC09336014DCF60E084E00E94D20075
:100F9000CD3419F58EE480933C01D701C60180560B
:100FA000904FAF4FBF4F8093450190934601A09360
:100FB0004701B0934801D701C601845D9E4FAF4FF2
:100FC000BF4F8093410190934201A0934301B0939E
:100FD000440160E088E00E94D20080914501909138
:100FE0004601A0914701B09148018C159D05AE05C1
:100FF000BF0508F016CFED2FF0E0EC5FFE4F10823A
:1010000010923C0110923D0110923E0181E08093CC
:101010005E018093590185E080933601DF91CF9185
:10102000FF90EF90DF90CF90BF90AF909F908F9008
:101030000C94F302EF92FF920F931F93CF937C01D6
:101040008B01C42F80910401882391F00E945302E8
:1010500080913A0181114BC02C2F40E061E08FEF6D
:1010600090E0CF911F910F91FF90EF900C94280387
:1010700080910501882359F00E94530280913A0122
:10108000811135C02C2F41E060E0C701EACF80918B
:101090000801882361F044E060E879EA83E090E0A9
:1010A000CF911F910F91FF90EF900C944806809183
:1010B0000601882359F00E94530280913A01811160
:1010C00016C022E042E060E0C801CBCF809107016A
:1010D000882331F043E060E073E587E090E0E0CF03
:1010E000CF911F910F91FF90EF900C940C02CF9134
:1010F0001F910F91FF90EF9008958F929F92AF9262
:10110000BF92CF92DF92EF92FF920E9443016B0158
:101110007C018EE00E94310120914001222309F4DC
:10112000A3C0409124015091250160912601709146
:1011300027014C155D056E057F0548F5BC01990F2B
:10114000880B990B0E94F40D20E030E040EA50E457
:101150000E94A90E20E030EC4FE754E40E94800D7D
:101160004B015C012CEE31E548E35EE30E94A40EE6
:1011700018160CF006C120E030E040E85FE3C5013E
:10118000B4010E947B0D87FFDEC010923501909163
:10119000340180913501981771F0D701C601845D43
:1011A0009E4FAF4FBF4F8093240190932501A09392
:1011B0002601B093270180918601811155C083E0FB
:1011C0000E94A900892B09F04FC0809130019091B5
:1011D0003101A0913201B09133018C159D05AE050E
:1011E000BF05C8F4809178018F5F853008F0CDC0CD
:1011F000809378018CE2C80E81E0D81EE11CF11CBE
:10120000C0923001D0923101E0923201F09233016C
:1012100081E08093380180913801882389F08091A2
:101220008001873069F080917801823009F4CEC066
:1012300008F0AEC0882309F4B8C0813009F4C3C0F7
:10124000809109018093040180910A018093050136
:1012500080910B018093060180910C01809307011E
:1012600080910D018093080180E10E94A900F09017
:10127000370121E0892B09F420E0F21621F10E94C8
:10128000430180902C0190902D01A0902E01B090F0
:101290002F0186169706A806B906A8F4645D7E4F4E
:1012A0008F4F9F4F60932C0170932D0180932E01DF
:1012B00090932F0191E0F926F092370180913A0145
:1012C000892780933A0181E10E94A900F0908B0167
:1012D00021E0892B09F020E0F21609F10E94430178
:1012E0008090280190902901A0902A01B0902B01B4
:1012F00086169706A806B90690F4645D7E4F8F4F58
:101300009F4F609328017093290180932A01909345
:101310002B0181E0F826F0928B010E94F30280916C
:101320008001882309F466C080913F01882309F475
:1013300061C0FF90EF90DF90CF90BF90AF909F90F3
:101340008F900C94F30226E636E646E050E4C501A1
:10135000B4010E947B0D87FD18CF26E636E646E4F1
:1013600050E4C501B4010E947B0D87FD0ECF2AE930
:1013700039E949E850E4C501B4010E947B0D87FDBD
:1013800004CF81E080938D0102CF1092780132CF9B
:10139000833041F1843009F053CF1092090181E08C
:1013A00080930A0110920B0118C01092090181E08C
:1013B00080930A0180930B0180930C0180930D01AF
:1013C000109238013DCF80930901F2CF10920901AC
:1013D00010920A0110920B0181E080930C0110928F
:1013E0000D01EECF1092090110920A0181E0809365
:1013F0000B01F3CFFF90EF90DF90CF90BF90AF90B5
:101400009F908F9008951F920F920FB60F92112404
:101410002F933F938F939F93AF93BF9380917401CA
:1014200090917501A0917601B0917701309173018F
:1014300023E0230F2D3758F50196A11DB11D2093F0
:1014400073018093740190937501A0937601B0931A
:10145000770180916F0190917001A0917101B0911D
:1014600072010196A11DB11D80936F0190937001CF
:10147000A0937101B0937201BF91AF919F918F9131
:101480003F912F910F900FBE0F901F90189526E857
:10149000230F0296A11DB11DD2CF1F920F920FB63E
:1014A0000F9211242F933F934F935F936F937F93EA
:1014B0008F939F93AF93BF93EF93FF93E0910201BC
:1014C000F09103010995FF91EF91BF91AF919F9129
:1014D0008F917F916F915F914F913F912F910F90DD
:1014E0000FBE0F901F9018951F920F920FB60F927C
:1014F00011242F933F934F935F936F937F938F9319
:101500009F93AF93BF93EF93FF93E0910001F0910E
:1015100001010995FF91EF91BF91AF919F918F913B
:101520007F916F915F914F913F912F910F900FBEDF
:101530000F901F901895789484B5826084BD84B50F
:10154000816084BD85B5826085BD85B5816085BDBE
:1015500080916E00816080936E0010928100809176
:1015600081008260809381008091810081608093FE
:101570008100809180008160809380008091B10023
:1015800084608093B1008091B00081608093B0004E
:1015900080917A00846080937A0080917A008260E2
:1015A00080937A0080917A00816080937A008091A4
:1015B0007A00806880937A001092C10010927801BE
:1015C000109280010E94500162E082E00E940001BE
:1015D00062E083E00E94000161E084E00E9400017B
:1015E00061E085E00E94000161E086E00E94000168
:1015F00061E087E00E94000161E088E00E94000154
:1016000061E089E00E94000161E08AE00E9400013F
:1016100061E08BE00E94000161E08CE00E9400012B
:1016200061E08DE00E94000188E795E09093010160
:1016300080930001809169008C7F826080936900B3
:10164000E89AC0E0D0E080918D018111E9C10E944B
:1016500043014B015C018FE00E9431014091820106
:10166000509183016091840170918501481559055D
:101670006A057B0508F04CC0BC01990F880B990BDB
:101680000E94F40D20E030E040EA50E40E94A90EF0
:1016900020E030EC4FE754E40E94800D6B017C01A8
:1016A000809181018823B9F02AE939E949E95EE3AB
:1016B000C701B6010E947B0D181654F426E636E6E3
:1016C0004EE850E4C701B6010E94A40E87FD9CC0FD
:1016D00081E080938D012AE939E949E95EE3C70198
:1016E000B6010E94A40E18160CF021C120E030E0D3
:1016F00040E45FE3C701B6010E947B0D87FF87C00E
:1017000080918C01811104C00E9450010E94AF029F
:10171000809181018823D9F0809182019091830189
:10172000A0918401B091850188159905AA05BB0592
:1017300070F4D501C401845D9E4FAF4FBF4F8093BD
:10174000820190938301A0938401B09385018091DD
:101750007E01811138C0F09080018091860188233C
:1017600029F080917F01F8120E94500110917F01B1
:10177000F11649F18CE2880E81E0981EA11CB11C83
:101780008092820190928301A0928401B09285019F
:10179000109380010E94AF021730A9F41092090142
:1017A00010920A0110920B0181E080930C011092BB
:1017B0000D01109204011092050110920601809310
:1017C000070110920801809186018111BFC08091AC
:1017D0008C018111E1C00E947D0880917D018823E8
:1017E00009F4DAC0E0918001E150E73008F0AAC0C6
:1017F000F0E0E350F44F0C94160F9B0CD20CD80C75
:10180000DE0CE20CE80CEE0C1092810164CF2FE1AB
:1018100035E84BEA5FE3C701B6010E947B0D87FF05
:101820000EC080918C01882321F00E9450011092FB
:10183000800181E080937F0110928C0169CF2DECB3
:101840003CEC4CEE5FE3C701B6010E947B0D87FFC5
:101850000AC080918C01882321F00E9450011092CF
:10186000800182E0E7CF2DE33AE047E150E4C70191
:10187000B6010E947B0D87FF0AC080918C018823EE
:1018800021F00E9450011092800183E0D3CF2DE31C
:101890003AE047E350E4C701B6010E947B0D87FFA1
:1018A0000AC080918C01882321F00E94500110927F
:1018B000800184E0BFCF2DE33AE047E550E4C70163
:1018C000B6010E947B0D87FF0AC080918C0188239E
:1018D00021F00E9450011092800185E0ABCF24E1FD
:1018E0003EEA47E750E4C701B6010E947B0D87FF3F
:1018F0000AC080918C01882321F00E94500110922F
:10190000800186E097CF26E636E64EE850E4C70130
:10191000B6010E947B0D87FF0AC080918C0188234D
:1019200021F00E9450011092800187E083CF81E076
:1019300080938101EDCE41E061EC73E081E699E0B6
:101940000E941A0880918601882331F10E94430188
:10195000C0907901D0907A01E0907B01F0907C01F9
:10196000C616D706E806F906A8F480910401882374
:1019700009F443C081E00E94C10288ECC80ED11C6A
:10198000E11CF11CC0927901D0927A01E0927B01B6
:10199000F0927C010E947D08209709F454CE0E94A9
:1019A000000051CE41E061EC73E081E798E0C8CFE0
:1019B00042E068E473E089E097E0C2CF40E068E489
:1019C00073E0F3CF42E060ED72E081E996E0B8CFDA
:1019D00040E068E572E081EB94E0B2CF80910701CE
:1019E000882341F043E060E073E587E090E00E94E7
:1019F0004806A8CF0E940C02A5CF8091050188233C
:101A000011F082E0B8CF80910601882311F083E0C5
:101A1000B2CF80910701882309F4AFCF84E0ABCF28
:101A200080918C018111B8CF60E084E00E94D200E7
:101A300060E085E00E94D20060E086E00E94D20073
:101A400060E087E00E94D20060E088E00E94D2005F
:101A50000E94430120918B012223C1F121E02093B8
:101A60000E01C0908701D0908801E0908901F0902C
:101A70008A01C616D706E806F90608F08DCF8DE074
:101A80000E94A900892B29F160E08DE00E94D2001C
:101A900060E08CE00E94D20060E08BE00E94D20007
:101AA00060E08AE00E94D20060E089E00E94D200FB
:101AB00088ECC80ED11CE11CF11CC0928701D092A9
:101AC0008801E0928901F0928A0166CF10920E019E
:101AD000C8CF61E08DE00E94D20061E08CE00E94FE
:101AE000D20061E08BE00E94D20061E08AE00E94B7
:101AF000D20061E0DACF0E942F0E08F481E0089551
:101B00000E94940D0C946A0E0E94630E58F00E947D
:101B10005C0E40F029F45F3F29F00C94530E5111F4
:101B20000C949E0E0C94590E0E947B0E68F3992320
:101B3000B1F3552391F3951B550BBB27AA276217C9
:101B40007307840738F09F5F5F4F220F331F441FD6
:101B5000AA1FA9F335D00E2E3AF0E0E832D091500A
:101B60005040E695001CCAF72BD0FE2F29D0660FF7
:101B7000771F881FBB1F261737074807AB07B0E83A
:101B800009F0BB0B802DBF01FF2793585F4F3AF040
:101B90009E3F510578F00C94530E0C949E0E5F3FBF
:101BA000E4F3983ED4F3869577956795B795F795C6
:101BB0009F5FC9F7880F911D9695879597F90895AE
:101BC000E1E0660F771F881FBB1F6217730784074A
:101BD000BA0720F0621B730B840BBA0BEE1F88F759
:101BE000E0950895E89409C097FB3EF490958095A0
:101BF000709561957F4F8F4F9F4F9923A9F0F92FD3
:101C000096E9BB279395F695879577956795B79550
:101C1000F111F8CFFAF4BB0F11F460FF1BC06F5F36
:101C20007F4F8F4F9F4F16C0882311F096E911C048
:101C3000772321F09EE8872F762F05C0662371F069
:101C400096E8862F70E060E02AF09A95660F771F7D
:101C5000881FDAF7880F9695879597F90895990F59
:101C60000008550FAA0BE0E8FEEF16161706E80766
:101C7000F907C0F012161306E407F50798F0621B87
:101C8000730B840B950B39F40A2661F0232B242B5C
:101C9000252B21F408950A2609F4A140A6958FEF7B
:101CA000811D811D089597F99F6780E870E060E0CD
:101CB00008959FEF80EC089500240A9416161706E5
:101CC00018060906089500240A941216130614062D
:101CD00005060895092E0394000C11F4882352F090
:101CE000BB0F40F4BF2B11F460FF04C06F5F7F4F48
:101CF0008F4F9F4F089557FD9058440F551F59F02F
:101D00005F3F71F04795880F97FB991F61F09F3FE8
:101D100079F087950895121613061406551FF2CF11
:101D20004695F1DF08C0161617061806991FF1CF61
:101D300086957105610508940895E894BB27662788
:101D40007727CB0197F908950E942F0E08F48FEFA3
:101D500008950E94BC0E0C946A0E0E945C0E38F02E
:101D60000E94630E20F0952311F00C94530E0C94F6
:101D7000590E11240C949E0E0E947B0E70F3959FB9
:101D8000C1F3950F50E0551F629FF001729FBB2772
:101D9000F00DB11D639FAA27F00DB11DAA1F649F0E
:101DA0006627B00DA11D661F829F2227B00DA11DC1
:101DB000621F739FB00DA11D621F839FA00D611D47
:101DC000221F749F3327A00D611D231F849F600D68
:101DD000211D822F762F6A2F11249F5750409AF091
:101DE000F1F088234AF0EE0FFF1FBB1F661F771F1D
:101DF000881F91505040A9F79E3F510580F00C94E8
:101E0000530E0C949E0E5F3FE4F3983ED4F38695F8
:101E100077956795B795F795E7959F5FC1F7FE2B87
:101E2000880F911D9695879597F90895EE0FFF1FDE
:0C1E30000590F491E02D0994F894FFCF88
:101E3C004F014F01000101010100010101010000EE
:041E4C00010101008F
:00000001FF
